:100000000C945C000C946E000C946E000C946E00CA
:100010000C946E000C946E000C946E000C946E00A8
:100020000C946E000C946E000C946E000C946E0098
:100030000C946E000C946E000C946E000C946E0088
:100040000C9438010C946E000C946E000C946E00AD
:100050000C946E000C946E000C946E000C946E0068
:100060000C946E000C946E00000000080002010069
:100070000003040700000000000000000000000072
:10008000250028002B0000000000240027002A0083
:10009000040404040404040402020202020203032E
:1000A0000303030301020408102040800102040836
:1000B000102001020408102011241FBECFEFD8E049
:1000C000DEBFCDBF21E0A0E0B1E001C01D92A930AC
:1000D000B207E1F70E9482010C940E030C94000019
:1000E00090E0FC01EC55FF4F2491FC01E057FF4FDD
:1000F0008491882399F090E0880F991FFC01EA57BA
:10010000FF4FA591B491FC01E458FF4F8591949164
:100110008FB7F894EC91E22BEC938FBF089590E0A9
:10012000FC01E859FF4F3491FC01EC55FF4F24913D
:10013000FC01E057FF4FE491EE2309F43BC0332369
:1001400039F1333091F038F43130A9F0323001F523
:1001500084B58F7D12C0373091F03830A1F0343043
:10016000B9F4809180008F7D03C0809180008F77EB
:10017000809380000DC084B58F7784BD09C08091C5
:10018000B0008F7703C08091B0008F7D8093B00066
:10019000F0E0EE0FFF1FE458FF4FA591B4918FB729
:1001A000F894EC91611103C020952E2301C02E2BF1
:1001B0002C938FBF08953FB7F894809105019091DB
:1001C0000601A0910701B091080126B5A89B05C0C2
:1001D0002F3F19F00196A11DB11D3FBFBA2FA92FC6
:1001E000982F8827820F911DA11DB11DBC01CD0143
:1001F00042E0660F771F881F991F4A95D1F708952F
:100200008F929F92AF92BF92CF92DF92EF92FF9226
:100210000E94DB004B015C0188EEC82E83E0D82EE3
:10022000E12CF12C0E94DB00DC01CB01881999093B
:10023000AA09BB09883E9340A105B10558F021E009
:10024000C21AD108E108F10888EE880E83E0981EF2
:10025000A11CB11CC114D104E104F10419F7FF90F1
:10026000EF90DF90CF90BF90AF909F908F900895C8
:100270001F920F920FB60F9211242F933F938F93DB
:100280009F93AF93BF938091010190910201A09140
:100290000301B09104013091000123E0230F2D37B9
:1002A00020F40196A11DB11D05C026E8230F02967A
:1002B000A11DB11D209300018093010190930201C3
:1002C000A0930301B0930401809105019091060170
:1002D000A0910701B09108010196A11DB11D809365
:1002E000050190930601A0930701B0930801BF9107
:1002F000AF919F918F913F912F910F900FBE0F90D3
:100300001F901895789484B5826084BD84B581600F
:1003100084BD85B5826085BD85B5816085BD8091D0
:100320006E00816080936E00109281008091810048
:100330008260809381008091810081608093810040
:10034000809180008160809380008091B100846002
:100350008093B1008091B00081608093B000809163
:100360007A00846080937A0080917A008260809322
:100370007A0080917A00816080937A0080917A007F
:10038000806880937A001092C10082E00E94700021
:1003900083E00E94700084E00E94700085E00E946B
:1003A000700086E00E94700087E00E94700088E084
:1003B0000E947000C0E0D0E061E082E00E948F0007
:1003C00061E083E00E948F0061E084E00E948F0082
:1003D00061E085E00E948F0061E086E00E948F006E
:1003E00061E087E00E948F0060E088E00E948F005B
:1003F0000E94000160E082E00E948F0061E083E0E3
:100400000E948F0061E084E00E948F0060E085E040
:100410000E948F0060E086E00E948F0060E087E02D
:100420000E948F0060E088E00E948F000E9400011F
:1004300061E082E00E948F0061E083E00E948F0013
:1004400060E084E00E948F0061E085E00E948F0000
:1004500061E086E00E948F0060E087E00E948F00EC
:1004600061E088E00E948F000E94000161E082E06C
:100470000E948F0061E083E00E948F0061E084E0D1
:100480000E948F0061E085E00E948F0060E086E0BE
:100490000E948F0060E087E00E948F0061E088E0AA
:1004A0000E948F000E94000160E082E00E948F00A5
:1004B00061E083E00E948F0061E084E00E948F0091
:1004C00060E085E00E948F0060E086E00E948F007F
:1004D00061E087E00E948F0061E088E00E948F0069
:1004E0000E94000161E082E00E948F0060E083E0F2
:1004F0000E948F0061E084E00E948F0061E085E04F
:100500000E948F0060E086E00E948F0061E087E03B
:100510000E948F0061E088E00E948F000E9400012D
:1005200061E082E00E948F0060E083E00E948F0023
:1005300061E084E00E948F0061E085E00E948F000E
:1005400061E086E00E948F0061E087E00E948F00FA
:1005500061E088E00E948F000E94000161E082E07B
:100560000E948F0061E083E00E948F0061E084E0E0
:100570000E948F0060E085E00E948F0060E086E0CE
:100580000E948F0060E087E00E948F0060E088E0BA
:100590000E948F000E94000161E082E00E948F00B3
:1005A00061E083E00E948F0061E084E00E948F00A0
:1005B00061E085E00E948F0061E086E00E948F008C
:1005C00061E087E00E948F0061E088E00E948F0078
:1005D0000E94000161E082E00E948F0061E083E000
:1005E0000E948F0061E084E00E948F0061E085E05E
:1005F0000E948F0060E086E00E948F0061E087E04B
:100600000E948F0061E088E00E948F000E9400013C
:10061000209709F4D1CE0E940000CECEF894FFCFEF
:00000001FF
